:100000000C942A000C943F000C943F000C943F0089
:100010000C943F000C943F000C943F000C943F0064
:100020000C943F000C943F000C943F000C943F0054
:100030000C943F000C943F000C943F000C943F0044
:100040000C943F000C943F000C943F000C943F0034
:100050000C943F0011241FBECFE5D8E0DEBFCDBF1A
:1000600010E0A0E6B0E0E8E3F1E002C005900D92F8
:10007000AA36B107D9F70E946D000C949A000C942F
:10008000000015BA82BB82E085BB85EA9EE001973D
:10009000F1F700C0000015BA089591E095BB82BB4E
:1000A00083E085BBE5EAFEE03197F1F700C0000090
:1000B00095BB08950F931F93CF938C01C0E007C0A9
:1000C000F801EC0FF11D80810E944D00CF5FC83018
:1000D000B8F3CF911F910F910895CF93DF93CDB7D0
:1000E000DEB729970FB6F894DEBF0FBECDBF89E00B
:1000F000E0E6F0E0DE01119601900D928A95E1F7BD
:100100008FEF84BB81BB8ABB87BB88E30E94410021
:100110008FE00E94410081E00E94410086E08BBB9D
:100120008BE588BB80E80E944100CE0101960E94C9
:080130005A00F4CFF894FFCF50
:0A013800416264616C6C61680000B4
:00000001FF
